:020000040800F2
:1000000000000220DD05000825060008CD53000889
:100010002506000825060008250600080000000047
:10002000000000000000000000000000250600089D
:1000300025060008000000002506000851530008AE
:1000400025060008250600082506000825060008E4
:1000500025060008250600082506000825060008D4
:10006000250600082506000825060008594F000847
:10007000654F000855380008714F00087D4F000893
:10008000450101084144000825060008250600082E
:100090002506000825060008250600082506000894
:1000A0002506000825060008250600082506000884
:1000B00071F500087DF5000889F500087544000811
:1000C000250600088144000825060008E1ED000827
:1000D000EDED000879FF0008A5FF0008D9FF000832
:1000E0002506000825060008000000002506000877
:1000F0002506000825060008250600082506000834
:10010000250600082506000895F50008F9ED000809
:100110000D00010841000108213B000825060008E8
:10012000093B0008153B00081DEE000851EE0008D1
:1001300079010108250600082506000825060008A3
:1001400000000000000000000000000000000000AF
:100150002506000825060008250600087500010888
:100160008D440008250600086153000885530008E7
:1001700025060008A95300082506000825060008E2
:100180002506000825060008A9000108DD00010871
:1001900005EE000811EE00082506000825060008F7
:1001A0002506000825060008250600082506000883
:1001B000794C0008250600082506000825060008D9
:1001C0002506000825060008250600082506000863
:1001D0002506000825060008250600082506000853
:1001E0002506000825060008250600082506000843
:1001F0002506000825060008250600082506000833
:100200002506000825060008250600082506000822
:100210002506000825060008250600082506000812
:100220002506000825060008250600080000000035
:100230002506000825060008000000002506000825
:1002400025060008250600082506000825060008E2
:1002500025060008250600082506000825060008D2
:1002600025060008250600082506000825060008C2
:1002700025060008250600081101010800000000FD
:1002800025060008250600082506000800000000D5
:08029000000000002506000833
:1002980010B5054C237833B9044B13B10448AFF3B8
:1002A80000800123237010BDE0030024000000003B
:1002B800383D010808B5034B1BB103490348AFF3A8
:1002C800008008BD00000000E4030024383D010858
:1002D80053B94AB9002908BF00281CBF4FF0FF31A5
:1002E8004FF0FF3000F074B9ADF1080C6DE904CEA1
:1002F80000F006F8DDF804E0DDE9022304B07047F9
:100308002DE9F047089D04468E46002B4DD18A42C0
:10031800944669D9B2FA82F252B101FA02F3C2F1F3
:10032800200120FA01F10CFA02FC41EA030E944084
:100338004FEA1C48210CBEFBF8F61FFA8CF708FBA5
:1003480016E341EA034306FB07F199420AD91CEB7D
:10035800030306F1FF3080F01F81994240F21C81AF
:10036800023E63445B1AA4B2B3FBF8F008FB1033F7
:1003780044EA034400FB07F7A7420AD91CEB04042C
:1003880000F1FF3380F00A81A74240F207816444FC
:10039800023840EA0640E41B00261DB1D440002381
:1003A800C5E900433146BDE8F0878B4209D9002DE5
:1003B80000F0EF800026C5E9000130463146BDE86F
:1003C800F087B3FA83F6002E4AD18B4202D38242D9
:1003D80000F2F980841A61EB030301209E46002D88
:1003E800E0D0C5E9004EDDE702B9FFDEB2FA82F2DD
:1003F800002A40F09280A1EB0C014FEA1C471FFA3B
:100408008CFE0126200CB1FBF7F307FB131140EA21
:1004180001410EFB03F0884208D91CEB010103F1EE
:10042800FF3802D2884200F2CB804346091AA4B2B0
:10043800B1FBF7F007FB101144EA01440EFB00FE84
:10044800A64508D91CEB040400F1FF3102D2A645E9
:1004580000F2BB800846A4EB0E0440EA03409CE788
:10046800C6F12007B34022FA07FC4CEA030C20FA35
:1004780007F401FA06F31C43F9404FEA1C4900FA55
:1004880006F3B1FBF9F8200C1FFA8CFE09FB1811D2
:1004980040EA014108FB0EF0884202FA06F20BD945
:1004A8001CEB010108F1FF3A80F08880884240F295
:1004B8008580A8F102086144091AA4B2B1FBF9F0D9
:1004C80009FB101144EA014100FB0EFE8E4508D9D4
:1004D8001CEB010100F1FF346CD28E456AD9023859
:1004E800614440EA0840A0FB0294A1EB0E01A1423E
:1004F800C846A64656D353D05DB1B3EB080261EBAC
:100508000E0101FA07F722FA06F3F1401F43C5E985
:10051800007100263146BDE8F087C2F12003D840BB
:100528000CFA02FC21FA03F3914001434FEA1C47FD
:100538001FFA8CFEB3FBF7F007FB10360B0C43EAEF
:10054800064300FB0EF69E4204FA02F408D91CEB9F
:10055800030300F1FF382FD29E422DD9023863449D
:100568009B1B89B2B3FBF7F607FB163341EA03413D
:1005780006FB0EF38B4208D91CEB010106F1FF388C
:1005880016D28B4214D9023E6144C91A46EA004683
:1005980038E72E46284605E70646E3E61846F8E615
:1005A8004B45A9D2B9EB020864EB0C0E0138A3E75E
:1005B8004646EAE7204694E74046D1E7D0467BE73F
:1005C800023B614432E7304609E76444023842E7B7
:1005D800704700BF0C4D0D4C03E02B6823600435B9
:1005E80004340B4B9C42F8D10A4C02E000232360F0
:1005F8000434094B9C42F9D105F03EF912F0C2FDD2
:1006080000F016FFFEE700BF6C3D01080000002463
:10061800E0030024E00300241CCA0224FEE780B49F
:1006280083B000AF87ED010AD7ED017AF0EEE77AE3
:10063800B0EE670A0C37BD465DF8047B704780B49E
:1006480085B000AF87ED010AC7ED000AD7ED017A42
:1006580097ED007AC7FE877AC7ED037AFB6807EE45
:10066800903AB0EE670A1437BD465DF8047B7047D0
:1006780080B485B000AF87ED010AC7ED000AD7ED59
:10068800017A97ED007AC7FEC77AC7ED037AFB684F
:1006980007EE903AB0EE670A1437BD465DF8047B62
:1006A800704780B584B000AF87ED030AC7ED020A32
:1006B80087ED011AD7ED020A97ED030AFFF7BFFF8E
:1006C800F0EE407AD7ED010AB0EE670AFFF7D0FFE7
:1006D800F0EE407AB0EE670A1037BD4680BD80B5AF
:1006E80086B000AF87ED030AC7ED020A87ED011A4D
:1006F80038603B68012B03D03B68022B1BD049E0D4
:10070800D7ED037A27EEA77AD7ED016AD7ED027AFB
:1007180076EEE77A27EE277AD7ED027A77EE277A10
:1007280097ED011AD7ED020AB0EE670AFFF7B9FF95
:10073800F0EE407A47E097ED017AD7ED027AC7EEFE
:10074800276AB0EE660A12F0BFFBB0EE407AF7EE09
:10075800006AC6EE877AC7ED057A97ED037AD7ED7A
:10076800057AC7EE276AF0EE660AB2EE040A12F0BE
:1007780017FAB0EE407AD7ED027A67EE277A97ED4E
:10078800011AD7ED020AB0EE670AFFF78AFFF0EE0A
:10079800407A18E097ED017AD7ED027A37EE677A5A
:1007A800D7ED037A27EE277AD7ED027A77EE277A04
:1007B80097ED011AD7ED020AB0EE670AFFF771FF4D
:1007C800F0EE407A00BFB0EE670A1837BD4680BD2C
:1007D80080B483B000AF78607B680B221A707B68A6
:1007E800FF225A707B6818460C37BD465DF8047BBB
:1007F800704780B485B000AF78607B681B783B7326
:100808007B685B787B7300233A7B62F307037A7B10
:1008180062F30F2318461437BD465DF8047B704712
:1008280080B483B000AF78607B6818460C37BD464B
:100838005DF8047B704780B483B000AF78607B6854
:1008480018460C37BD465DF8047B704780B483B00A
:1008580000AF78607B6800221A607B6818460C3706
:10086800BD465DF8047B704780B483B000AF786004
:100878007B6800221A607B6818460C37BD465DF815
:10088800047B704780B582B000AF78607B681846FB
:10089800FFF79EFF7B6800225A607B6800229A60FF
:1008A8007B680022DA607B6818460837BD4680BD41
:1008B80080B582B000AF78607B681846FFF7E2FF2A
:1008C8007B6818460837BD4680BD80B483B000AF4A
:1008D80078607B6800221A607B6818460C37BD4632
:1008E8005DF8047B704780B483B000AF78607B68A4
:1008F80000221A607B6818460C37BD465DF8047BF9
:10090800704780B483B000AF78607B6818460C37B6
:10091800BD465DF8047B704780B483B000AF786053
:100928007B6818460C37BD465DF8047B704780B479
:1009380083B000AF78607B6818460C37BD465DF819
:10094800047B704780B483B000AF78607B6818463A
:100958000C37BD465DF8047B704780B483B000AFA8
:1009680078607B6818460C37BD465DF8047B704795
:1009780080B483B000AF78607B6818460C37BD46FA
:100988005DF8047B704780B483B000AF78607B6803
:1009980018460C37BD465DF8047B704780B483B0B9
:1009A80000AF78607B689B7AFF2B0CBF0123002384
:1009B800DBB218460C37BD465DF8047B704780B43F
:1009C80083B000AF78607B6818460C37BD465DF889
:1009D800047B704780B483B000AF78607B681846AA
:1009E8000C37BD465DF8047B704780B582B000AF18
:1009F80078607B681846FFF75BFF7B681846083706
:100A0800BD4680BD80B483B000AF78607B6818466F
:100A18000C37BD465DF8047B704780B582B000AFE7
:100A280078607B681846FFF750FF7B6818460837E0
:100A3800BD4680BD80B483B000AF78607B6818463F
:100A48000C37BD465DF8047B7047B0B582B000AF87
:100A580078607B681846FFF7E3FE7B680C3318461E
:100A6800FFF7F4FE7B6810331846FFF73CFF7B68FE
:100A780014331846FFF750FF7B681C331846FFF7FE
:100A880061FF7B6820331846FFF7C7FF7B68283370
:100A98001846FFF7E9FE7B6830330B241D46002C0F
:100AA80005DB2846FFF78BFF2035013CF7E77B681D
:100AB80003F5D8731846FFF798FF7B6803F5E473CE
:100AC8001846FFF792FF7B6818460837BD46B0BD49
:100AD80090B583B000AF78607B6803F5E47318467F
:100AE800FFF790FF7B6803F5D8731846FFF78AFF76
:100AF8007B683033002B0CD07B68303303F5C0742F
:100B08007B6830339C4204D0203C2046FFF762FFCC
:100B1800F6E77B6820331846FFF78CFF7B681C33A9
:100B28001846FFF71AFF7B6814331846FFF7FFFED5
:100B38007B6810331846FFF7E4FE7B681846FFF71A
:100B48007AFE7B6818460C37BD4690BD0000000051
:100B580090B52DED028B87B000AFF860B9607A6070
:100B6800A54801F045FAA54802F0B4FBA348FFF7F1
:100B780015FF03461A46A24B1A7000219E4801F041
:100B880043FAF0EE407A9F4BC3ED007A9D4BD3EDCC
:100B9800007A0020B7EE001ADFED9B0AB0EE670A74
:100BA800FFF79DFDF0EE407A964BC3ED007A0121E8
:100BB800914801F029FAF0EE407A944BC3ED007A9F
:100BC800924BD3ED007A00209FED911AF0EE080ABF
:100BD800B0EE670AFFF783FDF0EE407A8B4BC3ED6A
:100BE800007A0221844801F00FFAF0EE407A894B2E
:100BF800C3ED007A874BD3ED007A0020B2EE041AD9
:100C0800F7EE000AB0EE670AFFF769FDF0EE407AEA
:100C1800804BC3ED007A0321774801F0F5F9F0EE37
:100C2800407A7D4BC3ED007A7B4BD3ED007A0020F0
:100C3800B7EE001ADFED790AB0EE670AFFF74FFD4D
:100C4800F0EE407A744BC3ED007A00237B617A6939
:100C58007B689A4280F0C483714B4FF000021A609F
:100C6800704B4FF000021A606F4B00221A706E4BE7
:100C78001B78032B00F2EE806B4B1B781A4644F668
:100C88002C6302FB03F3694A1344674A127814463B
:100C9800184600F0CDFCF0EE407A654AA3001344F4
:100CA800C3ED007A604B1B78614A9B001344D3ED77
:100CB800007AF1EE006A87EEA67A594BD3ED007AF6
:100CC80077EE277A564BC3ED007A574B1B78584A74
:100CD8009B001344D3ED007A9FED567A27EE878A5E
:100CE800514B1B781B01544A1344184600F0E8FC8A
:100CF800F0EE407A9FED517A67EE877A4A4B1B787F
:100D080078EE277A4E4A9B001344C3ED007A464B8F
:100D18001B781B01484A1A44434B1B7848499B00DF
:100D28000B44D3ED007AB0EE670A104600F0E8FCF9
:100D38003D4B1B781A4644F62C6302FB03F3414AE9
:100D48001344394A12781446184600F071FCF0EE44
:100D5800407A3D4AA3001344C3ED007A324B1B7816
:100D6800394A9B001344D3ED007AF1EE006A87EE0E
:100D7800A67A2C4BD3ED007A77EE277A294BC3ED70
:100D8800007A294B1B78304A9B001344D3ED007A34
:100D98009FED287A27EE878A234B1B781B012B4A65
:100DA8001344184600F08CFCF0EE407A9FED237A4D
:100DB80067EE877A1C4B1B7878EE277A244A9B00CB
:100DC8001344C3ED007A184B1B781B011F4A1A44C1
:100DD800154B1B781E499B000B44D3ED007AB0EEEF
:100DE800670A104600F08CFC0F4B1B780133DAB20F
:100DF8000D4B1A703BE700BFFC030024EC050024F0
:100E08006C9B02245C9B022400000000609B02246F
:100E180000002744649B0224689B0224A4703D3F81
:100E2800FC9A0224009B0224589B0224FC050024FF
:100E3800309B0224CDCC4C3F5C770224CDCC4C3E79
:100E4800049B0224AC3E0124409B02249C7702248C
:100E5800149B0224BA4B00221A70B94B1B78032B3F
:100E680000F20C81B74B4FF000021A60B64B4FF0FE
:100E780000021A60B54B00221A70B44B1B78032B82
:100E880000F2A080B24B1B78012B4AD1AC4B1B78E7
:100E98001846AE4B1B781946AE4A830013440B44E0
:100EA80093F9003007EE903AB8EEE77AA74B1B7833
:100EB800A94A9B001344D3ED007A67EE277AB6EE71
:100EC800007A27EE877A9F4BD3ED007A77EE277A60
:100ED8009C4BC3ED007A9A4B1B7818469B4B1B78AA
:100EE80019469C4A830013440B4493F9003007EEDB
:100EF800903AB8EEE77A954B1B78984A9B001344D2
:100F0800D3ED007A67EE277AB6EE007A27EE877A75
:100F18008D4BD3ED007A77EE277A8B4BC3ED007AB1
:100F280049E0874B1B781846884B1B7819468C4A32
:100F3800830013440B4493F9003007EE903AB8EE5F
:100F4800E77A824B1B78844A9B001344D3ED007ADE
:100F580067EE277AB6EE007A27EE877A794BD3EDDB
:100F6800007A77EE277A774BC3ED007A744B1B78BB
:100F78001846764B1B781946794A830013440B446C
:100F880093F9003007EE903AB8EEE77A6F4B1B788A
:100F9800724A9B001344D3ED007A67EE277AB6EEC7
:100FA800007A27EE877A684BD3ED007A77EE277AB6
:100FB800654BC3ED007A654B1B780133DAB2634B9E
:100FC8001A705AE75F4B93ED007A664BD3ED007ABF
:100FD80067EE277A5B4BC3ED007A7B699B00FA6862
:100FE800134493ED007A574BD3ED007A77EE277AC6
:100FF800544BC3ED007A524B1B781A4644F62C63C7
:1010080002FB03F3584A13444E4AD2ED007AB0EE7D
:10101800670A184600F08CFB4B4B93ED007A514B56
:10102800D3ED007A67EE277A474BC3ED007A7B69E8
:1010380001339B00FA68134493ED007A424BD3EDD9
:10104800007A77EE277A404BC3ED007A3C4B1B7849
:101058001A4644F62C6302FB03F3444A13443A4A03
:10106800D2ED007AB0EE670A184600F061FB344B07
:101078001B780133DAB2324B1A70EEE63C4B1B6830
:101088003C4A13603C4B00221A703B4B1B78032BE5
:101098007AD8394B1B781A4640F6C40302FB03F38F
:1010A800364A1344184600F06BFBF0EE407A344B96
:1010B800C3ED007A2F4BD3ED007AB7EEE76A304BD9
:1010C800D3ED007AB7EEE77A9FED1B5B27EE057B41
:1010D80036EE477BF7EEC77B2A4BC3ED007A294BE8
:1010E800D3ED007AB7EEE77A9FED136B27EE066B28
:1010F800234BD3ED007AB7EEE77A36EE077BF7EEAF
:10110800C77B1C4BC3ED007A1B4B1B781A4640F675
:10111800C40302FB03F3194A13441A4AD2ED007AB6
:10112800B0EE670A184600F073FB134B1B780133C7
:10113800DAB2114B1A70A8E7666666666666E63F1D
:10114800599B0224509B0224549B02245A9B02243C
:101158006C9B022448320108049B0224149B02243D
:1011680058320108689B0224FC050024AC3E012487
:10117800FC9A02242C9B0224589B0224DC7702242C
:10118800249B0224289B02249B4BD3ED007AB7EEC4
:10119800007A37EE677A7B699B00FA681344D3EDCF
:1011A800007A27EE277A944BD3ED006A934BD3ED60
:1011B800007A66EEA77A77EE277A914BC3ED007A2C
:1011C800904B1B688D4A13608F4B00221A708E4B10
:1011D8001B78032B52D88C4B1B781A4640F6C40355
:1011E80002FB03F3894A1344184600F0C9FAF0EEEB
:1011F800407A874BC3ED007A804BD3ED007AB7EE87
:10120800E76A834BD3ED007AB7EEE77A9FED785B18
:1012180027EE057B36EE477BF7EEC77B7D4BC3EDAC
:10122800007A7C4BD3ED007AB7EEE77A9FED706BCE
:1012380027EE066B764BD3ED007AB7EEE77A36EEFB
:10124800077BF7EEC77B6D4BC3ED007A6E4B1B78BF
:101258001A4640F6C40302FB03F36C4A13446D4A72
:10126800D2ED007AB0EE670A184600F0D1FA664B64
:101278001B780133DAB2644B1A70A8E75E4BD3EDE2
:10128800007AB7EE007A37EE677A7B6901339B0004
:10129800FA681344D3ED007A27EE277A564BD3ED3C
:1012A800006A564BD3ED007A66EEA77A77EE277A76
:1012B800544BC3ED007A7B699B00BA681344504ACB
:1012C80012681A607B6901339B00BA6813444D4A5F
:1012D80012681A604C4B00221A704B4B1B78032B78
:1012E8007AD84D4B93ED007A474B1B7807EE903A2E
:1012F800F8EEE76A494BD3ED007A66EEA77A77EE07
:10130800677AB0EE670AFFF78AF9F0EE407AFCEEEA
:10131800E77A17EE903A7B827B8A414A32F81310BB
:10132800394B1B781A463F4B43F82210364B1B7833
:101338001A4644F62C6302FB03F33B4A1344324A31
:1013480012781146374A52F821201146184600F003
:1013580085FA314B93ED007A2B4B1B7807EE903AC8
:10136800F8EEE76A2D4BD3ED007A66EEA77A77EEB2
:10137800677AB0EE087A77EEC77AB0EE670AFFF7B9
:101388004EF9F0EE407AFCEEE77A17EE903A7B825F
:101398007B8A234A32F813101B4B1B781A46214BC1
:1013A80043F82210184B1B781A4644F62C6302FBAC
:1013B80003F31E4A1344144A12781146194A52F884
:1013C80021201146184600F049FA0F4B1B780133CB
:1013D800DAB20D4B1A7080E77B6902337B6136E421
:1013E80000BF1C37BD46BDEC028B90BDAFF300803B
:1013F800666666666666E63F5C9B02242C9B022452
:10140800FC9A0224009B0224589B0224DC770224C5
:10141800249B0224289B0224609B0224649B0224B0
:1014280068320108EC9A0224FC050024AC3E012431
:1014380090B589B000AF604800F05EFC04215E48BA
:1014480000F0ACFD5D48FFF7D4F90346BB839FED80
:101458005C0AF9695B4801F023FF5B4B07F10C0458
:101468000FCB84E80F00594B00221A70574B1B789A
:10147800032B68D8554B1B781B01554A1344184653
:1014880000F003FA514B1B781B01514A1344012108
:10149800184600F005FA4D4B1B781A4644F62C63A3
:1014A80002FB03F34B4A1344184600F00BFA474B70
:1014B8001B781A4644F62C6302FB03F3454A1A4488
:1014C800424B1B789B0020333B4453F8143C19468D
:1014D800104600F0C3F93D4B1B781B013E4A1344EC
:1014E800184600F0D2F9394B1B781B013A4A1344CD
:1014F8000121184600F0D4F9344B1B781A4644F6FB
:101508002C6302FB03F3354A1344184600F0DAF95A
:101518002E4B1B781A4644F62C6302FB03F32F4A22
:101528001A442A4B1B789B0020333B4453F8143C45
:101538001946104600F092F9244B1B780133DAB2B1
:10154800224B1A7092E7264A3B1D92E8030083E873
:1015580003001E4B00221A701C4B1B78032B26D845
:101568001A4B1B781A4640F6C40302FB03F31D4AC4
:101578001344184600F0B1F9144B1B781A4640F68C
:10158800C40302FB03F3174A1A44104B1B785B0091
:1015980020333B4433F81C3C1946104600F0A8F9A8
:1015A8000A4B1B780133DAB2084B1A70D4E70E499C
:1015B800014800F0EFFCFEE7FC030024A437010813
:1015C80000000000EC050024E4310108589B0224C7
:1015D8005C770224FC0500249C770224AC3E01249D
:1015E800F4310108DC770224590B000880B483B079
:1015F80000AF78607B6818460C37BD465DF8047B01
:10160800704780B483B000AF78607B6818460C37A9
:10161800BD465DF8047B704780B483B000AF786046
:101628007B6818460C37BD465DF8047B70470000A0
:1016380080B485B000AF78607B685A687B689B6827
:101648001A441E4BA3FB02131B0B41F2883101FB0A
:1016580003F3D31A7A6802339B00134404331B68DC
:10166800FB607B685A687B689B6813445A1C134B61
:10167800A3FB02131B0B41F2883101FB03F3D31ABE
:101688007A6802339B00134404331B68BB6097EDF0
:10169800027AD7ED037A37EE677A7B68D3ED007A62
:1016A80027EE277AD7ED037A77EE277AB0EE670A26
:1016B8001437BD465DF8047B704700BF5917B7D192
:1016C80080B485B000AF78607B68DB68FB607B68BE
:1016D800DB68BB6097ED027AD7ED037A37EE677A5D
:1016E8007B68D3ED007A27EE277AD7ED037A77EE79
:1016F800277AB0EE670A1437BD465DF8047B704759
:1017080080B483B000AF786087ED000A7B685B68BF
:101718007A6802339B00134404333A681A607B6882
:1017280000225A6000BF0C37BD465DF8047B704745
:1017380080B483B000AF786087ED000A7B685B688F
:101748007A6802339B00134404333A681A607B6852
:101758005A6841F287331344084AA2FB0312120B5A
:1017680041F2883101FB02F29A1A7B685A6000BF85
:101778000C37BD465DF8047B704700BF5917B7D1D9
:1017880080B485B000AF78607B685A687B689B68D6
:101798001A441E4BA3FB0213DB0940F22E2101FB66
:1017A80003F3D31A7A6802339B00134404331B688B
:1017B800FB607B685A687B689B6813445A1C134B10
:1017C800A3FB0213DB0940F22E2101FB03F3D31A1A
:1017D8007A6802339B00134404331B68BB6097ED9F
:1017E800027AD7ED037A37EE677A7B68D3ED007A11
:1017F80027EE277AD7ED037A77EE277AB0EE670AD5
:101808001437BD465DF8047B704700BF0159B93AEB
:1018180080B483B000AF786087ED000A7B685B68AE
:101828007A6802339B00134404333A681A607B6871
:101838005B6803F22D22084BA3FB0213DB0940F27D
:101848002E2101FB03F3D31A7A68536000BF0C37CB
:10185800BD465DF8047B70470159B93A80B483B03E
:1018680000AF786039607B684FF000021A603B680F
:1018780041F287329A4228BF1A467B689A6000BFB5
:101888000C37BD465DF8047B704780B582B000AF69
:101898007860786800F043F800BF0837BD4680BD1F
:1018A80080B483B000AF786039607B684FF0000285
:1018B8001A607B6800229A6000BF0C37BD465DF84D
:1018C800047B704780B582B000AF7860786800F01C
:1018D80048F800BF0837BD4680BD80B582B000AF6C
:1018E8007860786800F061F800BF0837BD4680BDB1
:1018F80080B483B000AF786039607B684FF0000235
:101908001A603B6840F22D229A4228BF1A467B682B
:101918009A6000BF0C37BD465DF8047B704780B401
:1019280085B000AF78600023FB60FB68002B0CD10A
:101938007A68FB6802339B00134404334FF00002BB
:101948001A60FB680133FB60EFE77B6800225A608E
:101958007B6801229A6000BF1437BD465DF8047B9E
:10196800704780B485B000AF78600023FB60FB68E7
:1019780041F2873293420CD87A68FB6802339B00A5
:10198800134404334FF000021A60FB680133FB6014
:10199800EDE77B6800225A607B6801229A6000BFED
:1019A8001437BD465DF8047B704780B485B000AF3E
:1019B80078600023FB60FB6840F22D2293420CD82C
:1019C8007A68FB6802339B00134404334FF000022B
:1019D8001A60FB680133FB60EDE77B6800225A6000
:1019E8007B6801229A6000BF1437BD465DF8047B0E
:1019F8007047000090B583B000AF7860064C074B85
:101A08009C4206D0064B23441C46204600F0F6F8BC
:101A1800F5E70C37BD4690BDAC3E0124FC0500241B
:101A2800D4B1FFFF90B583B000AF7860064C074B88
:101A38009C4206D0064B23441C46204600F0DEF8A4
:101A4800F5E70C37BD4690BD5C770224AC3E012417
:101A5800D4B1FFFF90B583B000AF7860054C064B5A
:101A68009C4204D0103C204600F0D3F8F7E70C372E
:101A7800BD4690BD9C7702245C77022490B583B064
:101A880000AF7860054C064B9C4204D0103C2046C1
:101A980000F0BFF8F7E70C37BD4690BDDC770224AD
:101AA8009C77022490B583B000AF7860064C074B52
:101AB8009C4205D0A4F6C404204600F0B5F8F6E729
:101AC8000C37BD4690BD00BFEC9A0224DC77022497
:101AD800B0B582B000AF786039607B68012B6BD1FC
:101AE8003B684FF6FF72934266D13548FEF7ADFF6B
:101AF800344A3549324811F04BF83448FEF738FF7C
:101B0800304A3349314811F043F8324B03241D461B
:101B1800002C08DB2846FFF769FD44F62C632B44AC
:101B28001D46013CF4E7274A2B49002011F030F804
:101B38002A4B03241D46002C08DB2846FFF756FDD8
:101B480044F62C632B441D46013CF4E71D4A244906
:101B5800002011F01DF8234B03241D46002C05DB43
:101B68002846FFF74EFD1035013CF7E7154A1E4998
:101B7800002011F00DF81D4B03241D46002C05DB39
:101B88002846FFF73EFD1035013CF7E70D4A184996
:101B9800002010F0FDFF174B03241D46002C06DB28
:101BA8002846FFF739FD05F6C405013CF6E7054A66
:101BB8001149002010F0ECFF00BF0837BD46B0BD4A
:101BC800FC03002400000024D90A0008EC050024C6
:101BD8008F090008FC050024FD190008AC3E01240B
:101BE8002D1A00085C7702245D1A00089C770224ED
:101BF800851A0008DC770224AD1A000880B483B087
:101C080000AF78607B6818460C37BD465DF8047BEA
:101C1800704780B483B000AF78607B6818460C3793
:101C2800BD465DF8047B704780B483B000AF786030
:101C38007B6818460C37BD465DF8047B704780B555
:101C480000AF4FF6FF710120FFF742FF80BD000093
:101C580000294ED0274BF0B5D0E90024481E03F1E7
:101C68000C0E951C03F1100C4E00AC4218BF052851
:101C780002EB41058CBF01200020624538BFAE450C
:101C88002CBF01270027384227D02644644538BF97
:101C9800B64522D39D890026D8894FEA510E65F3AF
:101CA8000F06A44602EB8E0E65F31F46002560F36F
:101CB8000F0560F31F45104640F8046B70454CF85B
:101CC800045BF9D121F00100C90705D5998922F8EB
:101CD8001010DB8924F81030F0BD023A023C023DB6
:101CE800998922F8021FAA42D98924F8021FF7D13C
:101CF800F0BD7047709B02242DE9F04340F20113B8
:101D0800964A012706462DED028BDDB0C0F8EC217E
:101D1800ADF81C30002306978DF81E3003F062FDE5
:101D2800044603F0C3FB06A90546002840F00081DD
:101D3800002C00F0FD8030468DF81E7003F0D8FCB2
:101D4800072C0DF198080DD0854906F10C00854B3C
:101D5800854ACDE92613012341462892ADF8A430DF
:101D680002F002FE032201234FF000091CA904A877
:101D780006F11005CDF870904446CDF810905CAF90
:101D8800CDE9202300220123CDE92223774B01222C
:101D98001D9303F1007303F540731E934FF44173D1
:101DA800ADF87C300023CDE9242303F05DF901234D
:101DB8000CA905A80C930E931023CDF814908DF858
:101DC80040306B4BCDF83C900D9302F061FB0599C8
:101DD80006F1200000F032F94FF07E533020049ACB
:101DE8000A9308A90B930323CDE90803284601F0B9
:101DF80017F9284601F05EF92846B0EE408A01F04E
:101E080047F9D0ED007A0DF1580CDFF884E1F8EECF
:101E1800677A6546BEE80F0088EE277AACE80F00BF
:101E28009EE803008CE8030086ED7A7A35F8023BD9
:101E3800204612340222ADF80C30039901F078FAEA
:101E4800A742F3D106F1140704230C224146384671
:101E580006F1300500249FED478A01F07DFA09E07C
:101E680001F09EFC96ED7A0A01462846013401F0FD
:101E78007FF92035072CE1B23846F1D9E1B20134B7
:101E880001F08EFC00230146F0EE480A28461A4667
:101E980096ED7A0A01F03AF90C2CEAD13046364B25
:101EA80040F82C3F02F08AF8344B012206F5D8702E
:101EB800196801F0E3F9324B012206F5E47019685C
:101EC80001F0DCF92F4B06F5F070C6F8E03102F0AE
:101ED80075F82D4B06F5F270C6F8E43102F06EF88D
:101EE8000123D6F8EC0111A9CDE9133302231030F0
:101EF8001293002315934BF68033119301F0A4FE3F
:101F0800384601F037FCD6F8EC41237D04F1100582
:101F1800FBB928461D4D2368D4E90112009501F04C
:101F280011FF012323755DB0BDEC028BBDE8F08382
:101F3800304603F0DDFB25B106F1080000F080F91A
:101F4800FEE6002C7FF4FCAE06F1080000F078F9FC
:101F5800F6E6284601F02CFFDBE700BF709B022461
:101F68000508050905070506050A0606040204040E
:101F7800010A010B6F12033B02070100AC3701088D
:101F8800A8370108020E0100020D0100591C0008C3
:101F9800FC310108103001F091B800BFF8B500F12C
:101FA8001007054600F1300400F5D87638462DEDC7
:101FB800028B01F071F8384601F07CF83846B0EE33
:101FC800408A01F065F8D0ED007AF8EE677A88EE7D
:101FD800270A85ED7A0A01E095ED7A0A2046203431
:101FE80001F020F9B442F7D1BDEC028BF8BD00BF77
:101FF80038B500F1300400F5D8752046203401F0DA
:10200800EDF8AC42F9D138BD00EB411191ED0F0A62
:10201800704700BF07490022074B01F1600010B468
:10202800302459601A611C601A755DF8044BC3E9C5
:102038000202704700000030709B0224F0B58C2328
:1020480087B00160002203710124FA26194605AB06
:102058008DF81420029640220093234601940546E9
:1020680002F0ACFA002840F09B809DF814300DF186
:1020780017074022284603F07F030097CDE9014661
:102088008DF814308DF817302346297902F0BCFA00
:10209800002840F08580042003F006FA05AB4022B2
:1020A800284600932346CDE90146297902F086FAAD
:1020B800002875D19DF8143040220097284603F077
:1020C800BF03CDE901468DF814308DF8173023464B
:1020D800297902F099FA002862D1042003F0E4F982
:1020E8000DF115034322284600932346CDE9014606
:1020F800297902F063FA002852D10DF1160348221B
:10210800284600932346CDE90146297902F056FA7C
:10211800002845D19DF8153043220097284643F002
:1021280001038DF815308DF817309DF8163043F0FF
:102138000103CDE901468DF816302346297902F0CE
:1021480063FA68BB9DF816304822009728468DF838
:1021580017302346CDE90146297902F055FAF8B936
:1021680005AB4022284600932346CDE9014629794C
:1021780002F024FAA0B99DF81420234601942846B9
:1021880002F0CF0402960097402229798DF8144076
:102198008DF8174002F038FA003818BF012000E027
:1021A800012007B0F0BD00BFF0B5102387B0234C65
:1021B800012200250126002702A920460195CDE924
:1021C80002234FF48052CDE904670AF069FC6420C9
:1021D80003F0AEFD02A94FF480522046CDE9046712
:1021E80002261027CDE902670AF05AFC03221023C1
:1021F80002A92046CDE9022300230422CDE90423C5
:102208004FF480520AF04CFC40F23223042202A917
:10221800019310232046CDE90223019A0123059258
:102228004FF4805204930AF03BFC40F60601204626
:102238000AF056FC284607B0F0BD00BF909B022468
:102248001C4B00221C494FF0400C30B5054689B0A4
:102258000220596007219A601A620124DA620A2270
:102268004FF4006EDC6006922022CDE900010420C4
:102278000821CDE9020103201021CDE9040108203D
:102288006946C3E904024FF4C072181DC3E906C2C7
:102298004FF48052C3E909E20AF0D8FB38B928465E
:1022A800FFF782FF003818BF012009B030BD204673
:1022B80009B030BD8C9B022440410052614A002184
:1022C800D0B513688EB00A91002B40F0B9805E4BF0
:1022D80001214FF683700C2411600221D3F8D42019
:1022E8000026032742F48052C3F8D420D3F8D42020
:1022F80002F480520092009AD3F8E02042F01002D3
:10230800C3F8E020D3F8E02002F010020192019A0D
:10231800D3F8E02042F04002C3F8E020D3F8E020F0
:1023280002F040020292029AD3F8E02042F008023A
:10233800C3F8E020D3F8E02002F008020392039AE1
:10234800D3F8E02042F48072C3F8E020D3F8E0200C
:1023580002F480720492049AD3F8E02042F08002DA
:10236800C3F8E020D3F8E02002F080020592059A35
:10237800D3F8E02042F02002C3F8E020D3F8E020B0
:1023880002F020020692069AD3F8E02042F00402F6
:10239800C3F8E020D3F8E0300C9403F0040307936B
:1023A8000323079A0B93CDE9080108A9274805F0EC
:1023B8002BFE48F23712022308A925480C94CDE9D0
:1023C8000823CDE90A6705F01FFE4CF203720223C9
:1023D80008A920480C94CDE90823CDE90A6705F03F
:1023E80013FE40F2FF62022308A91B480C94CDE9B2
:1023F8000823CDE90A6705F007FE4FF60C720223A1
:1024080008A916480C94CDE90823CDE90A6705F018
:10241800FBFD4FF63F02022308A911480C94CDE9B1
:102428000823CDE90A6705F0EFFD2022022308A959
:102438000A480C94CDE90A67CDE9082305F0E4FDC4
:102448000EB0D0BD889B02240044025800100258E8
:1024580000180258000C025800200258001C0258AC
:10246800001402582DE9F04FDFF8108406460D4697
:10247800144608F118002DED028B89B000AF02F068
:10248800EBFED8F8183073B3D8F81C30D8F804909D
:10249800002B43690BBF4FF0080A4FF0100A4FF0AA
:1024A800020B4FF0040BB9F1000F2AD0A200EA4644
:1024B800012B02F1070222F00702ADEB020D68467C
:1024C800ADEB020D694600F03F81022B00F0D6808B
:1024D800002B6FD02246C847D5462437BD46BDECF1
:1024E800028BBDE8F08FD8F81C30002BF5D0D8F857
:1024F80004904FF0080A4FF0020B4369B9F1000F3E
:10250800D4D1FB61D8F80030BB61002BE5D0D548A9
:1025180002F014FF6B46BBF1020F786108EE103A27
:10252800FB6900F083816A465146A2EBC4029546D6
:102538006200EA46B2FBFBF2AAEBC40085460AEB4E
:102548008200EE46F861ADEB010DF8690EEB820CE6
:10255800C7F810C0EC46ADEB010D00EB8201CCF8DA
:102568000400CCF8081001EB82013869E946CCF880
:102578000C1000EB8201CCF800A001EB8202C9E943
:1025880000E0C9E90212012B00F06483022B00F07D
:102598006C82002B00F08081620849466046BB6966
:1025A800984718EE103A24379D46BD46BDEC028B7D
:1025B800BDE8F08F002C8DD01A46D8ED0C6A9FED3F
:1025C800B27A8446331D36F922E00CF1080C07EE86
:1025D80090EA33F922E00232F8EEE77A944267EEA5
:1025E800877A67EEA67A4CED027A07EE90EAF8EE63
:1025F800E77A67EE877A67EEA67A4CED017AE2D839
:10260800F9612246C847984ED8ED0D6A0020F9694D
:102618002B1D9FED9E7A9FED9E6ADFED9E5A22E06C
:10262800F4EEC67AF1EE10FAC0F2C88447F6FE72EC
:10263800D1ED017A45F8202066EEA77AF4EEC77A44
:10264800F1EE10FA40F2F080F4EEC67AF1EE10FAEC
:10265800C0F2D58447F6FE7243F8202002300831D4
:1026680084427FF639AFD1ED007A66EEA77AF4EEB0
:10267800C77AF1EE10FAD3D83246D9E7002C3FF4E6
:1026880029AFD8ED0C6A84469FED787A0022331D75
:102698008E4656F822100CF1080C07EE901A53F8E3
:1026A80022100232F8EEE77A944267EE877A67EEF4
:1026B800A67A4CED027A07EE901AF8EEE77A67EE02
:1026C800877A67EEA67A4CED017AE2D871462246FF
:1026D800C7F81CE0C847664ED8ED0D6A0020F969B6
:1026E8002B1D9FED6A7A9FED6A6ADFF894C120E09E
:1026F800F4EEC67AF1EE10FAC0F279843246D1EDE2
:10270800017A45F8202066EEA77AF4EEC77AF1EE52
:1027180010FA40F28780F4EEC67AF1EE10FAC0F2B1
:102728005E84324643F820200230083184427FF626
:10273800D3AED1ED007A66EEA77AF4EEC77AF1EE61
:1027480010FAD5D86246DAE7002C3FF4C3AED8EDCC
:102758000C6A86469FED477A4FF0000C331D56F8F9
:102768002C200EF1080E82F40002A2F5000207EEFA
:10277800902A53F82C200CF1020CF8EEE77A82F438
:1027880000026445A2F5000267EE877A67EEA67A32
:102798004EED027A07EE902AF8EEE77A67EE877A2E
:1027A80067EEA67A4EED017AD9D8F9612246C84774
:1027B800314ED8ED0D6A0020F9692B1D9FED337A53
:1027C8009FED336ADFF8BCC01FE0F4EEC67AF1EE85
:1027D80010FAC0F2FC833246D1ED017A45F8202088
:1027E80066EEA77AF4EEC77AF1EE10FA18D9F4EE8D
:1027F800C67AF1EE10FAC0F2DA83324643F82020A6
:102808000230083184427FF667AED1ED007A66EE79
:10281800A77AF4EEC77AF1EE10FAD6D86246DBE76B
:102828006246EBE762467DE7324615E7A100D646E9
:102838006208073121F00701ADEB010DEA46ADEB67
:10284800010D6946ADEB0E0D0AEB8200EC46ADEBCF
:102858000E0D01EB8202F861E946CCE900A0C9E956
:10286800001290E6E09B02240280FFFF0000003087
:102878000082FF7F0000003482FF7F00C49B022497
:10288800007E00807E0080FF0000003804FF7FBFCC
:1028980004FF7F3F00FEFF46002C00F0C982BBF119
:1028A800020FD8F8242000F0FA827969C7F804905A
:1028B80002EB810E5FED0C5A8A00DCF808100EF16D
:1028C80004007A611A46DCF80C303B61331DD7F8F6
:1028D80010903D61FD69C7E902CB8C46834636F905
:1028E8002210D8ED0C7A06EE101A33F9221006EEF3
:1028F800901A3EF92210B8EEC66A07EE101AF8EEE2
:10290800E66A3BF92210B8EEC77A26EE256A66EE2B
:10291800A56A27EE257A26EE276A66EEA76A27EECD
:10292800277A07EE901A51080232F8EEE77A0AEB96
:102938008100944280ED006A05EB810067EEA57A7C
:10294800C0ED006A0CEB810009EB810180ED007A93
:1029580098ED0C7A67EE877AC1ED007ABFD8D7F880
:1029680004903D69D7E902CB60466208BB694946D5
:102978009847D8F82C307A69D8ED0D6A1A441FEDBB
:102988003D7A1FED3D6A2B1D904602F1040A5FED6A
:102998003F5A0022A84ED9E900EC51E0F4EEC67A7D
:1029A800F1EE10FAC0F2C78247F6FE7045F8220031
:1029B8000CEB0100D0ED007A66EEA77AF4EEC77A48
:1029C800F1EE10FA4BD9F4EEC67AF1EE10FAC0F235
:1029D800BA8247F6FE70BBF1020F43F822002BD0F3
:1029E800D9F808000844D0ED007A66EEA77AF4EE2C
:1029F800C77AF1EE10FA36D9F4EEC67AF1EE10FA8B
:102A0800C0F2CD8247F6FE7048F82200D9F80C00D3
:102A18000144D1ED007A66EEA77AF4EEC77AF1EEBA
:102A280010FA1ED9F4EEC67AF1EE10FAC0F2AF82AF
:102A380047F6FE714AF82210023294427FF6B1AD91
:102A480051080EEB81008900D0ED007A66EEA77A76
:102A5800F4EEC77AF1EE10FAA0D83046A6E7304671
:102A6800B9E73146E6E73046CEE7002C00F0E081D2
:102A7800BBF1020FD8F8243000F0E1817A69DCF864
:102A8800081003EB820EC7F804909300DFED6B5A31
:102A98000EF1040000227B61DCF80C303B61331D31
:102AA800D7F810903D61FD69C7E902CB8C46834693
:102AB80056F82210D8ED0C7A07EE101A53F82210A7
:102AC800B8EEC76A07EE101A5EF82210F8EEC76A69
:102AD80007EE101A26EE256A5BF82210B8EEC77AC0
:102AE80066EEA56A26EE276A27EE257A66EEA76ABD
:102AF80027EE277A07EE901A51080232F8EEE77AA5
:102B08000AEB8100944280ED006A05EB810067EED4
:102B1800A57AC0ED006A0CEB810009EB810180ED1C
:102B2800007A98ED0C7A67EE877AC1ED007ABFD803
:102B3800D7F804903D69D7E902CB60466208BB69C3
:102B480049469847D8F82C307A69D8ED0D6A1A4466
:102B58009FED3E7A9FED3E6A131D9246DFF8E4C072
:102B68000022FB612B1D364ED9E9008E4EE0F4EEB3
:102B7800C67AF1EE10FAC0F2FC81304645F8220020
:102B88000EEB0100D0ED007A66EEA77AF4EEC77A74
:102B9800F1EE10FA49D9F4EEC67AF1EE10FAC0F265
:102BA800EF813046BBF1020F43F822002AD0D9F852
:102BB80008000844D0ED007A66EEA77AF4EEC77AEA
:102BC800F1EE10FA35D9F4EEC67AF1EE10FAC0F249
:102BD800C98130464AF82200D9F80C000144D1EDE9
:102BE800007A66EEA77AF4EEC77AF1EE10FA1ED9EB
:102BF800F4EEC67AF1EE10FAC0F2AD813146F8690A
:102C080040F82210023294427FF6CBAC510808EB10
:102C180081008900D0ED007A66EEA77AF4EEC77AD3
:102C2800F1EE10FAA3D86046A8E76046BAE7614615
:102C3800E5E76046CEE700BF0280FFFF00000030F6
:102C48000082FF7F007E00800000003404FF7FBF09
:102C580004FF7F3F002C00F0EB807A690021D8F850
:102C68002430C7F8109003EB820ED7F81C9093001D
:102C7800FD610EF104021FED0C6A7B61331D1546E0
:102C880056F821204808D8ED0C6ABBF1020F82F4EF
:102C98000002A2F5000207EE902A53F8212082F4E0
:102CA8000002B8EEE77AA2F5000227EE067A07EEF0
:102CB800902A0AEB8002F8EEE77A27EE267A67EE8A
:102CC800867A82ED007A09EB80024FEA800067EE8F
:102CD800A67AC2ED007A27D05EF8212082F400029D
:102CE800A2F5000207EE902A55F8212082F400028E
:102CF800B8EEE77AA2F5000227EE067A07EE902AE8
:102D0800DCF80820F8EEE77A024427EE267A67EE28
:102D1800867A82ED007A98ED0C7ADCF80C2067EE62
:102D2800877A0244C2ED007A02318C42A8D8D7F8DB
:102D3800109060466208BB694946FD699847D8F813
:102D48002C307A69D8ED0D6A1A441FED407A1FEDD0
:102D5800406A131D9246DFF8C4C20022FB612B1D96
:102D6800AB4ED9E9008E4EE0F4EEC67AF1EE10FAD9
:102D7800C0F2C580304645F822000EEB0100D0EDC8
:102D8800007A66EEA77AF4EEC77AF1EE10FA49D91E
:102D9800F4EEC67AF1EE10FAC0F2BF803046BBF10D
:102DA800020F43F822002AD0D9F808000844D0EDD1
:102DB800007A66EEA77AF4EEC77AF1EE10FA35D902
:102DC800F4EEC67AF1EE10FAC0F2AE8030464AF858
:102DD8002200D9F80C000144D1ED007A66EEA77AFA
:102DE800F4EEC77AF1EE10FA1ED9F4EEC67AF1EED7
:102DF80010FAC0F28B803146F86940F8221002328E
:102E080094427FF6CEAB510808EB81008900D0EDE3
:102E1800007A66EEA77AF4EEC77AF1EE10FAA3D834
:102E28006046A8E76046BAE76146E5E76046CEE750
:102E3800224649466046BB699847FFF7B2BBC7F8C8
:102E480010B0002298ED0C6A331DDFED726AD7F8D6
:102E58001CB0786956F8221007EE901A53F8221021
:102E6800B8EEE77A07EE901A51080232F8EEE77AE0
:102E780027EE267A0AEB810E94420BEB810167EE6E
:102E8800A67A27EE067A67EE867A8EED007AC1ED8D
:102E9800007ADFD88300D7F810B07B614DE61A4678
:102EA800C7F810B098ED0C6A331DDFED5B6AD7F8F0
:102EB8001CB0786936F9221007EE101A33F922107F
:102EC80007EE901AB8EEC77A51080232F8EEE77AA0
:102ED80027EE267A0AEB810E94420BEB810167EE0E
:102EE800A67A27EE067A67EE867A8EED007AC1ED2D
:102EF800007ADFD88300D7F810B07B6134E5F0EEB4
:102F0800675AFEEEE45A15EE900A34E7F0EE675A77
:102F1800FEEEE45A15EE901A6EE7F0EE675AFEEEF2
:102F2800E45A15EE900A3AE7F0EE675AFEEEE45AD4
:102F380015EE900A4BE767EEA57AFDEEE77A17EEF5
:102F4800900A00B232E567EEA57AFDEEE77A17EE51
:102F5800900A00B23FE5F0EE675AFEEEE05A15EE31
:102F6800901A4CE6F0EE675AFEEEE05A15EE900A1B
:102F780030E6F0EE675AFEEEE05A15EE900AFDE5EF
:102F8800F0EE675AFEEEE05A15EE900A0AE667EE92
:102F9800A57AFDEEE77A17EE901A09B24AE567EED0
:102FA800A57AFDEEE77A17EE900A00B22CE5F0EE6E
:102FB800675AFEEEE45A15EE902A1FE467EEA57AEA
:102FC800FDEEE77A17EE902A12B2FFF731BBF0EE6A
:102FD800675AFEEEE45A15EE902AFFF7FDBBF0EEB5
:102FE800675AFEEEE05A15EE902AFFF79BBBF0EE0B
:102FF800675AFEEEE05A15EE902AFFF780BB67EE9F
:10300800A57AFDEEE77A17EE902A12B2FFF724BBF5
:1030180082FF7F0000000030000000387E0080FF43
:1030280030B5184C154685B0046004F1080EEC461E
:103038000FC98EE80F00D4ED047AF5EEC07A8CE85B
:103048000F00F1EE10FA1ADDB7EE006A94ED057A7A
:1030580027EE277AC6EE276A84ED0D7AC4ED0C6A4E
:103068006DB1204640F8185F02F0F6F8064903698A
:103078000020064A2162A262E36005B030BD01204B
:1030880005B030BDC49B0224C0200030C000003011
:1030980000680830704700BFB1F5807F03680A46B2
:1030A80028BF4FF48072B1F5807F9A6094BF0020EA
:1030B800012070470068183002F02EB930B5046856
:1030C80083B008480D46A368A26A216A9B00009055
:1030D80004F1180002F0C2F80020C4E9000503B0AA
:1030E80030BD00BF6D24000810B4074B4FF07E516F
:1030F80030240022032019619C60D8605DF8044BDD
:103108005961C3E906227047C49B0224F6EE007A8F
:103118009FED166A20EE207A0160F7EE006A80EDD6
:10312800036A80ED020A27EE277AC6EE877AF4EE64
:10313800E67AF1EE10FA11DDF0EE667A4FF07E5184
:103148004FF0000C02760022C0ED017AC0F814C0DE
:10315800016143768276C0ED070A7047F4EEC67ABD
:10316800F1EE10FAEAD5F0EE467AE7E70000000043
:10317800DFED187AB6EE007AF7EE006A9FED166A70
:1031880060EE277A016080ED036A80ED020A67EE3F
:10319800877A86EEA77AB4EEE67AF1EE10FA10DDB9
:1031A800B0EE667A4FF0804C4FF07C514FF480724D
:1031B800012380ED017AC0F810C041610283837653
:1031C8007047B4EEC67AF1EE10FAEBD5B0EE467A57
:1031D800E8E700BF6F12033B000000000268037EAF
:1031E800128807EE902AFBEEC87A1BB1B7EE007A78
:1031F80077EE677AD0ED056A90ED047A77EEE67A95
:10320800437E67EE877A0BB1F1EE677A90ED030A99
:1032180090ED017A77EEC07AA7EE270A80ED030ACF
:10322800704700BF837E80ED020AABB9D0ED077A04
:1032380027EE800AF6EE007AB7EE007A20EE270A2B
:10324800C7EE007AF4EEC77AF1EE10FA07DDF0EE79
:10325800477AC0ED017A7047DFED067AE8E7F5EEC8
:10326800C07AF1EE10FAF4D5DFED037AC0ED017AF9
:10327800704700BF6F12033B0000000070B584B0B8
:10328800002504461646ADF80C102B462A4603992D
:10329800009500F0ADFDA582A67504B070BD00BF15
:1032A80070B5044682B0C1F30726CDB2ADF804105C
:1032B80002F0F8F84FF480724FF001232060A01D4F
:1032C800A571A280E671A36002B0BDE8704000F06D
:1032D80075BE00BF38B5044602F0E4F80022236842
:1032E8002271834210D00122A57AE37A95402060AA
:1032F8002271A01D6DB243B900F03CFF40B22843D3
:10330800C0B27F28A0720AD038BD00F033FFB0FAEF
:1033180080F040092843C0B27F28A072F4D102F09F
:10332800C1F807EE900AF8EE677AC4ED037A38BD63
:1033380000B583B04FF0000E4FF0030C4274ADF8A7
:103348000410BDF8043080F810E0A0F802C0038033
:1033580003B05DF804FB00BF2DE9F04FDFF81C83D4
:1033680000258DB0C04C037008F140034260074649
:1033780001920E46202229464046C4F86831C4F816
:103388006481CDE90255CDE90455CDE90655CDE96D
:103398000855CDE90A550FF019FF2022294604F5F2
:1033A800A170C4F83151C4F83551C4F83951C4F882
:1033B8003D510FF00BFF019B84F8485284F83031DF
:1033C8007A68002A6AD02B4604F59871454606F1BA
:1033D800100A9E46F01856F803B0E2180EF1010ED6
:1033E800D0F80CC0D0F80490D0F8088044F803B0A6
:1033F800C2F80CC04FF0000CC2F80490C2F8088064
:10340800008A25F802CB10821AF8032001F8012F50
:10341800002A70D07A684FF001001233724584F8A0
:103428004802D7D84FF4802290489DF804300821EC
:103438004FF000084FF00009C4F884310023C4E9B4
:103448005B020122C4F8743184F88031C4E95E213A
:1034580094F84812C4E96489A9B3C4F898210022F1
:1034680084F8813184F888313B78C4E96722002BDD
:1034780038D0012200200121013B84F8A421C4E9AD
:103488006C01082B30D8DFE813F0BD00C200C7007C
:10349800CC00D100D600DB00E100E8009DF8043044
:1034A8000121C4F87421C4F884314FF4802384F8CE
:1034B80080216E4AC4E95B2308230022C4E95E1315
:1034C8000023C4E964230123002284F88131002306
:1034D80084F888310323C4F898313B78C4E967221B
:1034E800002BC6D184F8A431614803F059F803468B
:1034F80038B1FFBEFEE77A68123372453FF66AAF0D
:1035080090E702A95A48029303F0A8F982460028D6
:1035180076D1042240F2FF710A90CDE9081294F89E
:103528003021002A00F0F3804FF006080AEBCA03A6
:103538004FEACA0904EB43035B7C072B07D8DFE893
:1035480003F0595C5653504D4A04072307930FFA6A
:103558008AF6D14406EBC60604EB490904EB460794
:103568007500384600F02AFD99F81030042B00F356
:10357800AA80022B00F3BD8000F0B98004EB0A0397
:10358800002283F8202114F81630002B78D0022B63
:1035980000F08A80012B40F0B2807B78012B00F08C
:1035A800B080002B334B18BF002305A93048CDE964
:1035B800053802F021FC002840F0AC800AF1010A2D
:1035C80094F830315FFA8AFA534540F2A0802A4BCA
:1035D80053F82A80AAE706230793B8E70523079339
:1035E800B5E704230793B2E703230793AFE7022362
:1035F8000793ACE700230793A9E701230793A6E7FE
:10360800FFBEFEE703224023C4E96A236CE70722D2
:103618006023C4E96A2367E70F228023C4E96A2389
:1036280062E71F22A023C4E96A235DE73F22C02383
:10363800C4E96A2358E77F22E023C4E96A2353E7F1
:10364800FF224FF48073C4E96A234DE740F2FF126A
:103658004FF49073C4E96A2346E740F2FF324FF40F
:10366800A073C4E96A233FE7009C022400200240BB
:103678006C9D02240002B025B0370108C04000301C
:103688007B78062B37D0072B3DD0022B4AD0032B53
:103698004AD0002B4CD0012B48D0042B4AD0052B04
:1036A800254B18BF002380E77B78042B25D0052BFA
:1036B8002BD08BB3012B31D0022B31D0032B1F4BD6
:1036C80018BF002371E70323043504EB0A0B4FF0FE
:1036D800000925448BF82031284609F1010900F03A
:1036E8006DFC9BF8203104354B45F5DC4BE7012395
:1036F800EAE70223E8E7124B57E7124B55E70023A6
:1037080053E7114B51E7114B4FE7114B4DE70DB004
:10371800BDE8F08FFFBEFEE70E4B46E70E4B44E7D1
:103728000E4B42E70E4B40E70E4B3EE70E4B3CE795
:103738000E4B3AE70E4B38E70000B84F00209036A2
:103748000800900C1000C0102000F0148000501DDC
:10375800000180210004002A0008302E0010603289
:103768000040C03A0080F03E00005247000021436C
:103778000000844B38B5094C40F2FF724FF001113C
:1037880004F5B675284603F017F894F83021D4F8F4
:1037980064112846BDE8384002F082BD009C02242E
:1037A800034B0F29D3F8640198BF00EB4100704721
:1037B800009C0224214B02689A4200D07047204A9C
:1037C80000232048D2F8D81030B51F4C41F0200112
:1037D80083B0C4F8D001092004F5E875C4E975037D
:1037E8004FF48060C2F8D810D2F8D8204FF40061A6
:1037F800C4E9773094F8480202F02002C4F8E411D2
:103808004FF40051984201922846C4F8E811C4E9DF
:103818007C33019B14BF00234FF48073C4F8EC3150
:1038280003F01AFC08B1FFBEFEE704F5B673C4F84E
:10383800B851C4F8083203B030BD00BF00200240C0
:103848000044025840000240009C0224014804F051
:1038580089B800BFD09D022402682DE9F84F4B4B70
:103868009A4201D0BDE8F88F494D95F84832002BAF
:10387800F8D095F83031002B77D0002405F10C09E9
:1038880005F5A17605F59877A04613E003F0010148
:1038980017F811BCA9F1080000F07AFCBBF1010F80
:1038A80025D895F83031013409F112090236A2B24F
:1038B80093422BD917F8012F002AF4D0D5F8643198
:1038C8000021327833F81400D5F8683103EB04137B
:1038D80023F81200338801339BB233805FFA83FAEE
:1038E8003A789A42D2D88A46A6F80080D0E7CAF336
:1038F8004001A9F1040000F04BFCBBF1020FCAF330
:103908008001CED0484600F043FCCAE7002395F872
:103918004802204909229842C5F8D8314FF48060FE
:10392800C5F8D011C5F8D4214FF400614FF4005206
:10393800C5F8DC3108BF4FF48073C5F8E821C5E944
:10394800780100221448C5E97B32C5F8F42103F058
:1039580083FB08B1FFBEFEE795F83021D5F8641166
:103968000E48BDE8F84F02F09BBC0A4909224FF403
:103978008060C5F8D831C5E974124FF400614FF47E
:103988000052C5E97730C5E97912DAE7002002402C
:10399800009C022440000240D09D02246C9D022419
:1039A800704700BF4F4B02689A4200D070474E4B99
:1039B800D3F8E81030B541F000514C4C85B0D4F83C
:1039C8004821C3F8E810D3F8E81001F0005101913C
:1039D8000199D3F8E01041F00101C3F8E010D3F8E1
:1039E800E03003F001030293029B32F002033DD062
:1039F800013A012A6BD9D4F84C31012B0AD00022A4
:103A08003620114602F09EFF362005B0BDE8304052
:103A180002F0D6BFD4F8483133F0020234D0013B6B
:103A2800012BECD8442240233149324DC4F88C1084
:103A380000212846C4F8B010C4E9242300224FF41A
:103A48008063C4E926234FF400624FF40053C4E9AD
:103A580028234FF480724FF48033C4E92A2303F0FB
:103A6800FBFA80B9E560C4F8C440C8E74FF4806247
:103A7800032303A8ADF80C208DF80E3000F09EFA51
:103A8800D4F84821B4E7FEE71B4BA26343226361E5
:103A980040231A4DC4E9062300224FF480632846C8
:103AA800C4E908234FF400624FF40053C4E90A2321
:103AB8004FF480724FF48033C4E90C2303F0CCFA3E
:103AC80020B9D4F84831A560E464A8E7FEE74FF4CC
:103AD800A062032303A8ADF80C208DF80E3000F087
:103AE8006DFA88E70074004000440258509E022492
:103AF80028040240DC9E022410040240649E022432
:103B0800014803F02FBF00BF649E0224014803F060
:103B180029BF00BFDC9E022410B5054C204603F0E7
:103B2800CBF804F58270BDE8104009F087B900BFF2
:103B3800509E0224164BD3F84821D3F85811022A74
:103B48004FEA510130B583B00CD088B2D3F85C216C
:103B5800D3F8644102EB400300930CB16846A047D8
:103B680003B030BDD3F86021002AF9D088B2D3F869
:103B78005C41D3F8645104EB400402EB4002CDE908
:103B88000042002DECD06846A84703B030BD00BF06
:103B9800509E0224134BD3F84821022A10B582B054
:103BA8000CD0D3F85C11D3F86421009122B1D3F87A
:103BB800581168464908904702B010BDD3F86021F3
:103BC800002AF9D0D3F85C11D3F86441CDE900128A
:103BD800002CF1D0D3F8581168464908A04702B024
:103BE80010BD00BF509E0224094BD3F84821022A79
:103BF8000DD000B5D3E9581283B0019122B1D3F8A2
:103C0800581101A84908904703B05DF804FB7047B4
:103C1800509E02240B4BD3F84821022A10D0D3F827
:103C2800581110B5D3E95824C1F34F0382B049089D
:103C380002EB430301930CB101A8A04702B010BDE9
:103C4800704700BF509E022430B58C463A4C3B4D1D
:103C58008DB0046004F5A27EBCE80F00AEE80F004A
:103C6800DCF8003020462560CEF8003002F036FF40
:103C78000023D4F84C510393C5B11622012D0492A8
:103C880017D00022D4F85411D4F848319142CDE924
:103C9800062218BF0222059233F0020235D0013BFA
:103CA800012B3CD9002528460DB030BD02230493D2
:103CB800E7E7234A0093C4F80C31C4F81431C4F878
:103CC8000421C4F81C31CDE9013301F089FDD4F891
:103CD80044314BF68032C4F80851002B08BF134614
:103CE800B0FBF3F304F58270C4F8103108F010FF4C
:103CF8000028D8D120230290694604F582700093E9
:103D080009F054F90028BCD0CDE703A90A4803F00C
:103D180007F878B9D4F84831013B012BC2D81022F2
:103D280003A9054802F0FCFF051E18BF0125284617
:103D38000DB030BD0125B6E7509E02240074004046
:103D48000010004070B504681D4682B01046D4F8D3
:103D58004C31012B03D0D4F84831022B24D1D4F8AC
:103D68005031069A002BC4F85C11C4F864212B4624
:103D78000CBF08260026C4F860010A46C4F858514A
:103D880000212046009602F0BFFED4F860212B46A1
:103D980010212046009602F0B7FE04F5827008F064
:103DA80057FF002002B070BD012002B070BD00BFF7
:103DB80010B50468D4F84C31012B09D1D4F8483136
:103DC80033F0020106D0013B012B0BD9002010BDB6
:103DD800012010BD204602F023FFD4F84831013BF2
:103DE800012BF3D81021204602F01AFF002010BD45
:103DF80010B592B0ADF804100180C9B2149C0B291B
:103E0800C460C0E901233FD090F801C0BCF10F0F96
:103E18003AD8022A3FD0032A02D0012A00D0002231
:103E28000E92012B02D0022B18BF0023022C0F93F5
:103E38002CD0032C2AD0012C28D000230A29109337
:103E480027D85C4A02EB812202610A2914D8DFE8EC
:103E580001F0A39587796B5D4F4133250600564BDA
:103E6800D3F8E01041F48061C3F8E010D3F8E030F3
:103E780003F480630C930C9B01230DA9104603FAED
:103E88000CF30D9304F0C0F812B010BD0A29109479
:103E9800D7D90022D8E711220E92C2E7464BD3F8B1
:103EA800E01041F40071C3F8E010D3F8E03003F4F7
:103EB80000730B930B9BDFE73F4BD3F8E01041F403
:103EC8008071C3F8E010D3F8E03003F480730A93EC
:103ED8000A9BD1E7384BD3F8E01041F08001C3F8D2
:103EE800E010D3F8E03003F080030993099BC3E79F
:103EF800314BD3F8E01041F04001C3F8E010D3F89B
:103F0800E03003F040030893089BB5E72A4BD3F849
:103F1800E01041F02001C3F8E010D3F8E03003F0DE
:103F280020030793079BA7E7234BD3F8E01041F042
:103F38001001C3F8E010D3F8E03003F01003069343
:103F4800069B99E71C4BD3F8E01041F00801C3F831
:103F5800E010D3F8E03003F008030593059B8BE7E6
:103F6800154BD3F8E01041F00401C3F8E010D3F882
:103F7800E03003F004030493049B7DE70E4BD3F871
:103F8800E01041F00201C3F8E010D3F8E03003F08C
:103F980002030393039B6FE7074BD3F8E01041F04C
:103FA8000101C3F8E010D3F8E03003F001030293F5
:103FB800029B61E700000258004402588378022BF4
:103FC80030B504468FB037D0032B33D0012B31D016
:103FD80000230A93E378012B2AD0022B28D0002350
:103FE8000B93002320460C9301F080FD05462046E4
:103FF80001F084FD23780990082B13D8DFE803F03B
:104008001F3245586B7E91A40500594BD3F8E02028
:1040180042F48072C3F8E020D3F8E03003F48073F0
:104028000893089B09A9284603F0EEFF0FB030BD9E
:104038000B93D6E70A93CDE711230A93CAE74C4BB3
:1040480009A92846D3F8E02042F00102C3F8E0208D
:10405800D3F8E03003F001030093009B03F0D4FF92
:104068000FB030BD424B09A92846D3F8E02042F0F2
:104078000202C3F8E020D3F8E03003F00203019312
:10408800019B03F0C1FF0FB030BD394B09A9284689
:10409800D3F8E02042F00402C3F8E020D3F8E0307F
:1040A80003F004030293029B03F0AEFF0FB030BD90
:1040B8002F4B09A92846D3F8E02042F00802C3F89C
:1040C800E020D3F8E03003F008030393039B03F0E8
:1040D8009BFF0FB030BD264B09A92846D3F8E02036
:1040E80042F01002C3F8E020D3F8E03003F01003E8
:1040F8000493049B03F088FF0FB030BD1C4B09A943
:104108002846D3F8E02042F02002C3F8E020D3F894
:10411800E03003F020030593059B03F075FF0FB013
:1041280030BD134B09A92846D3F8E02042F04002DD
:10413800C3F8E020D3F8E03003F040030693069B71
:1041480003F062FF0FB030BD094B09A92846D3F828
:10415800E02042F08002C3F8E020D3F8E03003F01A
:1041680080030793079B03F04FFF0FB030BD00BFDC
:104178000044025838B5054601F0B8FC0446284604
:1041880001F0BCFC01462046BDE8384004F044B9C3
:1041980070B506460D4601F0A9FC0446304601F00C
:1041A800ADFC2A1E0146204618BF0122BDE870401A
:1041B80004F038B90023122270B586B0CDE9022385
:1041C80004930368032B01D804230593061D841D5B
:1041D800304601F08BFC0546304601F08FFC034663
:1041E80001A92846019303F00FFF204601F07EFC49
:1041F800034620461C4601F081FC01A903462046DF
:10420800019303F001FF06B070BD00BF634A036865
:10421800934210B58CB028D0614A934258D0614A75
:10422800934200F09480604A934201D00CB010BDD4
:104238005E4C5F48D4F8E03043F00203C4F8E03045
:10424800D4F8E03003F002030A930A9BFFF7B2FFA9
:10425800D4F8F43043F08003C4F8F430D4F8F430E0
:1042680003F080030B930B9BE0E7504C5148D4F8C4
:10427800E03043F00203C4F8E030D4F8E03003F053
:1042880002030193019BFFF795FFD4F8E830002261
:104298001F2043F400131146C4F8E830D4F8E8307E
:1042A80003F400130293029BD4F8D83043F00103BF
:1042B800C4F8D830D4F8D83003F001030393039B33
:1042C80002F040FB1F200CB0BDE8104002F078BBA4
:1042D800364C3948D4F8E03043F08003C4F8E03075
:1042E800D4F8E03003F080030493049BD4F8E03062
:1042F80043F00203C4F8E030D4F8E03003F00203DE
:104308000593059BFFF756FFD4F8E83000222120DB
:1043180043F480031146C4F8E830D4F8E83003F4D5
:1043280080030693069BD4F8D83043F00103C4F801
:10433800D830D4F8D83003F001030793079B02F074
:1043480001FB21200CB0BDE8104002F039BB1B482E
:10435800FFF730FF154B00224820D3F8E8401146FC
:1043680044F40004C3F8E840D3F8E84004F4000437
:104378000894089CD3F8D84044F00104C3F8D84006
:10438800D3F8D83003F001030993099B02F0DAFA55
:1043980048200CB0BDE8104002F012BB00540040A9
:1043A80000580040005C0040001C005800440258BF
:1043B80044A20224BC9F022494A002246CA10224DB
:1043C8002DE9F0431A4B87B000254FF010099E469F
:1043D800EC46184BFF22E04667461A700EF11806A5
:1043E8000EF13004CDE90055CDE90255ADF8009045
:1043F800BCE80F00CDE90455AEE80F009CE80300C7
:104408000095ADF800908EE80300B8E80F000FC6DD
:104418009CE803000095ADF8009086E803000FCFF4
:104428000FC49CE8030084E8030007B0BDE8F083EC
:1044380004000024B89F022410B5EFF3108472B66C
:10444800084B1A78120602D504B962B610BD1B785B
:10445800D82205485BB202FB0300143003F082FA4D
:10446800F2E700BFB89F0224BC9F0224014804F071
:1044780031BF00BF48A00224014804F02BBF00BF91
:1044880020A10224014804F025BF00BFF8A102249E
:104498002DE9F0430F68D8243F4D85B007FB04F49D
:1044A800032F05EB0403036040DCCB680E46012BA9
:1044B8003CD84DD04FF0D808B646DFF8FC9008FB42
:1044C8000758BEE80F00C446ACE80F00DEF800301D
:1044D8000DF1100ECCF80030D8F808C099E80F009C
:1044E8000EE90F000EEB8703BCF1010F53F8103CE7
:1044F800C8F88C3031D0BCF1020F42D0BCF1000FAB
:1045080035D0317C8C34D823002201202C4403FB85
:1045180007534900C3E92602C3F894102046C3E9AB
:104528002822C3E92A2204F007FC18B1012005B0AB
:10453800BDE8F0830146204604F0D8FE0028F5D1F6
:104548000146204604F0FCFE003818BF0120EEE7C3
:104558000B7C103B672BADD9E8E701F03FF90F4B17
:1045680098420CBF0E4B0F4BC8F89030C9E701F0CA
:1045780035F90A4B98420CBF0B4B0C4BC8F89030DE
:10458800BFE701F02BF9054B98420CBF084B094BCC
:10459800C8F89030B5E700BFBC9F0224000E27077B
:1045A8002D0FB0303211D0205F4390608A62E03026
:1045B800200BA0101A098010143201082DE9F041CF
:1045C800046884B01E46E368BDF82C80C3B90D4664
:1045D80017468C34204604F085FE2028FAD1204660
:1045E8000C9C33463A462946CDE901840A9C00943E
:1045F80004F022FD003818BF012004B0BDE8F081A6
:10460800012004B0BDE8F0812DE9F041046884B0D0
:104618001E46E368BDF82C80C3B90D4617468C3496
:10462800204604F05FFE2028FAD120460C9C334631
:104638003A462946CDE901840A9C009404F0D2FB4D
:10464800003818BF012004B0BDE8F081012004B093
:10465800BDE8F081044B10221A7483F8E82083F82F
:10466800C02183F898227047BC9F022430B50023EC
:1046780095B04FF48071062204460B93069213936B
:10468800CDE90C13CDE90E33CDE9113301F0AAF8C9
:1046980007282BD004F1100541F2883206A92846D4
:1046A80005F060FC28B10123184684F85C3015B089
:1046B80030BD0222022306A92846CDE90023102294
:1046C8000123CDE9022300224FF48003CDE904231E
:1046D80005224FF0807306926A460F9341F28833A1
:1046E80005F0ACFD0028DED115B030BD0323012054
:1046F80084F85C3015B030BD70B50023A4B04FF01D
:1047080080724FF480750446ADF806300D93CDE9FC
:1047180010320122CDE90E53CDE91223CDE914332D
:10472800002943D0F02300F1100508AEADF806309B
:10473800C02341F2883231462846089305F012FC1E
:1047480028B10123184684F85C3024B070BD41F2CA
:1047580088320DF10601284605F06EFC0346002854
:10476800EFD105224FF480711E93284616924FF020
:1047780080721B9321931F9202AA9FED1F7BCDE9A4
:104788001C13CDE922338DED027B9FED1D7B41F299
:10479800883316A98DED047B9FED1B7B8DED067B81
:1047A80005F04CFD0028CCD124B070BD00F11005F7
:1047B80008AE612341F2883231462846089305F055
:1047C800D1FB0028BDD141F288320DF106012846FF
:1047D80005F0B0FC0028B4D1BDF80630204623F01F
:1047E800780343F04003ADF80630FFF73FFF002899
:1047F8009ED0A6E7AFF30080000000000100000093
:10480800100000000100000000000000000040004F
:104818002DE9F04F00234FF4807501264FF0807882
:1048280004462DED028BABB08DF80730139321931E
:10483800299314950E96CDF85C80CDE91533CDE912
:104848001863CDE91A33CDE92253CDE92433CDE9F4
:10485800273306231C9300F0C5FF072808D004F16E
:10486800100741F288321CA9384605F07BFB40B19D
:104878000123184684F85C302BB0BDEC028BBDE8F0
:10488800F08F4FF0020A4FF0020B4FF0050941F28A
:10489800883308AA1CA93846CDF89480CDF87090C2
:1048A8009FED2D8BCDE908AB4FF0000A4FF4800B3C
:1048B8008DED0A8BCDE90CAB05F0C0FC0028D7D1F3
:1048C80041F2883238460EA905F04CFB0028CFD1BA
:1048D800402341F288320DF1070138468DF8073040
:1048E80005F0AAFB0028C3D141F288330EA902AA19
:1048F8003846CDF83890CDF85C809FED197B8DED6A
:10490800048BCDE906AB8DED027B05F097FC0346E1
:104918000028ADD1CDF870904FF00109CDF8948002
:104928004FF00008219308AA29931CA9384622951C
:10493800CDE92333CDE9273341F288338DED0A8B56
:10494800CDE90CABCDE9088905F078FC002893D0B7
:10495800304684F85C608FE710000000010000001A
:1049680040000000400000002DE9F043624CA3B075
:104978000D46046000F036FF072800F0A98028687B
:1049880023466968AA6807C31E46AB8926F8043B14
:104998003046257B677B05F0C7FAE0B9574B012DF8
:1049A8004FF00108E061236114BF4FF480134FF406
:1049B8000003C4E9058893FAA3F3B3FA83F34FF429
:1049C8008079013BC4F82490C4E90B003046236287
:1049D80005F03EFA38B10122134684F85C201846E7
:1049E80023B0BDE8F08366230B90139041F2883220
:1049F80006A90693CDE90C90CDE90E00CDE911008A
:104A0800304605F0AFFA0028E5D1992341F2883203
:104A180006A93046069305F0A5FA0028DBD1052340
:104A28001C9019906A4614934FF08073219014A932
:104A38001D9341F288339FED2A7BCDE91A90CDE989
:104A48001F008DED007B9FED287B30468DED027BAE
:104A58009FED277B8DED047B05F0F0FB0028BAD194
:104A680029462046FFF748FE0028B4D12046FFF724
:104A7800CFFE03460028AED1002FB0D118933046A0
:104A88000027002606AA14A9CDF86890CDE91F339F
:104A9800EB2314934FF440631B934FF40053179385
:104AA8004FF440431C93A0231693062319934FF009
:104AB800805321934FF04073CDE906671D9305F0AD
:104AC80035FC034600288AD0434684F85C8086E794
:104AD80001230322184684F85C2023B0BDE8F08344
:104AE80000000000010000001000000001000000AC
:104AF80000000000000040001CA3022400500052E7
:104B08002DE9F04F8FB0414B0024026800AF9A4264
:104B18007C63C7E90944C7E90B4403D03C37BD4669
:104B2800BDE8F08F3A4B40F609213A48EB46D3F8F6
:104B3800D42007F11C0607F1220A4FF0020942F4BB
:104B480080424FF00308C3F8D420D3F8D42002F4ED
:104B58008042BA60BA68D3F8E02042F04002C3F855
:104B6800E020D3F8E02002F04002FA60FA68D3F8B7
:104B7800E02042F02002C3F8E020D3F8E02002F061
:104B880020023A613A69D3F8E02042F01002C3F8F3
:104B9800E020D3F8E02002F010027A617A69D3F8B5
:104BA800E02042F00202C3F8E020D3F8E030F861D8
:104BB80003F002033984BB61174B7B60BB697B68D8
:104BC80053F8040F7B6000F091FF7B680546186876
:104BD80000F094FF16F8013B786207F1240128469B
:104BE800C7F830807B63C7E90A9403F00DFA56458D
:104BF800E5D100225C20114601F0A4FE5C2001F002
:104C0800DFFE3C37DD46BD46BDE8F08F0050005260
:104C1800004402580A0A090978A30224114B0268C1
:104C28009A4200D07047104A70B5D2F8D4300F4C71
:104C380023F4804304F11806C2F8D43054F8040F62
:104C480000F054FF0546206800F058FF014628464A
:104C580003F01AFBB442F1D15C20BDE8704001F0CA
:104C6800BDBE00BF005000520044025878A3022481
:104C7800014805F0E7BB00BF2CA30224084B1A1D0E
:104C8800981D03F1080110B49C1C9A6603F10A02EE
:104C9800C3E91834C3E91B015DF8044B5A67704730
:104CA8001CA3022438B5036871B9026A00F128050B
:104CB80000F5AC74012A0CBF002140218BBB1D4BB1
:104CC8005722C0F858310DE0426A00F1C00500F5DE
:104CD800E874012A0CBF00214021EBB1164B5A227F
:104CE800C0F8D03100232046C4E901214FF4805296
:104CF8004FF48061636262614FF48042C4E903311A
:104D08004FF48073C4E906234FF40033236202F0A2
:104D1800A3F958B1FFBEFEE7084B5822C0F8D031BE
:104D2800E0E7074B5922C0F85831DBE7C5E92044D2
:104D3800A56338BD10000240700002402800024000
:104D4800580002402DE9F043821D05468BB0031D33
:104D580005F10A010830CDE9052305F10C02AB691C
:104D6800CDE907010992002B3DD0EB69B3FA83F82E
:104D78004FEA58180123022205AE0AAF4FF0060980
:104D88000393CDE9012356F8044B2B7922789342FB
:104D980016D02B68F3B1012B02D1F2B10A23049388
:104DA800204600F0ABFE03462046009300F09EFE2E
:104DB800694603F029F9BE42E5D10BB0BDE8F0839E
:104DC800697963789942E4D1B8F1000FF3D02B6880
:104DD800002BE0D1CDF81090E2E76378022B14BFE6
:104DE8000A230823DBE74FF00108C3E7534A0368A7
:104DF800934230B505468BB055D02032934252D0FD
:104E08004F4A934204D02032934201D00BB030BDB8
:104E18004C4C4D48D4F8E03043F00103C4F8E0307E
:104E2800D4F8E03003F001030593059BD4F8E03093
:104E380043F00803C4F8E030D4F8E03003F0080386
:104E48000693069BD4F8E03043F04003C4F8E03002
:104E5800D4F8E03003F040030793079BD4F8F03010
:104E680043F40003C4F8F030D4F8F03003F400033E
:104E78000893089BFFF766FFD4F8D830296843F0F9
:104E880001032F4A3048C4F8D830891AD4F8D830EA
:104E980018BF012103F001030993099B0BB0BDE87A
:104EA8003040FFF7FFBE274C2848D4F8E03043F0E5
:104EB8000103C4F8E030D4F8E03003F001030093B4
:104EC800009BD4F8E03043F01003C4F8E030D4F885
:104ED800E03003F010030193019BD4F8E03043F075
:104EE8004003C4F8E030D4F8E03003F04003029304
:104EF800029BD4F8F03043F48003C4F8F030D4F8BF
:104F0800F03003F480030393039BFFF71BFFD4F8EF
:104F1800D830296843F00103084A0C48C4F8D8304F
:104F2800891AD4F8D83018BF012103F0010304937B
:104F3800049B0BB0BDE83040FFF7B4BE04580140F5
:104F4800045C014000440258F0A5022494A3022402
:104F5800014802F007BD00BFECA40224014802F09A
:104F680001BD00BF64A50224014802F0FBBC00BFDC
:104F780048A70224014802F0F5BC00BFC0A70224DC
:104F88001A4A0368934210B40BD02032934208D0D7
:104F9800174A934216D02032934213D05DF8044B3F
:104FA8007047144B0022D3F85442C3F85822002CFF
:104FB800F4D0D3F84802D3E9931223465DF8044BA2
:104FC800520818470B4B0022D3F8B044C3F8B42456
:104FD800002CE3D0D3F8AC24D3F8A814D3F8A40455
:104FE800520823465DF8044B184700BF0458014097
:104FF800045C014094A30224184A0368934210B445
:105008000BD02032934208D0154A934217D0203251
:10501800934214D05DF8044B7047124BD3E99424A3
:105028005208C3F85822002CF4D0D3E99201234641
:1050380001EB820100EB82005DF8044B1847094B35
:10504800D3F8AC24D3F8B0445208C3F8B424002CE5
:10505800E0D0D3F8A814D3F8A404E8E70458014032
:10506800045C014094A302242DE9F04F0C684FF42E
:105078001776754F87B004FB06F6012C07EB060A76
:10508800C0F800A000F3A0800D468E464FF000083F
:10509800D44669A3D3E9002369A1D1E90001CDE988
:1050A800022306ABCAF8508203EB8403CDE904015E
:1050B80053F810BC53F8083CCAE992880193BEE83B
:1050C8000F00ACE80F00BEE80F00ACE80F00019B32
:1050D8009EE80300CAF828B0CAF8C0308CE803007C
:1050E8002B69042B0CD8DFE803F0737D879103004C
:1050F8004FF41773554A03FB04739A64C3F8E0200E
:10510800AA692B6A002A43D0002B4FF4177308BFF3
:10511800022203FB047318BF0322DA6201221A6316
:10512800EA696B6A002A40D1191E4FF4177318BF39
:10513800012103FB0473C3E931126B69022B05D803
:10514800434A12F80380434A52F823904FF41773E6
:1051580006F128004246494603FB047400233844FC
:1051680063646363E365C4F8DC30C4F8CC30C4F826
:10517800F430C4E90F33C4E91533C4E93533C4E95D
:105188003B33022307F000FA002849D0FFBEFEE7B0
:10519800191E4FF4177318BF012103FB0473C3E9E9
:1051A8000B12EA696B6A002ABED0002B4FF4177302
:1051B80008BF022203FB047318BF0322C3F8C420EC
:1051C8000122C3F8C820B8E7012007B0BDE8F08F76
:1051D8004FF417734FF4FA5203FB04739A64C3F83D
:1051E800E0208DE74FF417734FF47A5203FB0473F2
:1051F8009A64C3F8E02083E74FF417734FF4FA4238
:1052080003FB04739A64C3F8E02079E74FF417733B
:105218004BF6803203FB04739A64C3F8E0206FE70F
:1052280006F1C000022342464946384407F0ACF96B
:105238000028CAD0FFBEFEE704580140045C0140C4
:1052480024580140245C014094A302240077010003
:10525800F0370108F43701080068704770B5046832
:1052680082B015460E46C4F85032C4E99212069A26
:10527800C4F85422A269012A26D0626A012A9AB285
:1052880011D0294604F1C000019207F039FA236AC7
:10529800019A012B10D0294604F1280007F030FAB2
:1052A800002002B070BD04F1C000019207F0BAFA04
:1052B800236A019A012BEED1314604F1280007F048
:1052C800B1FA002002B070BD226A012A9AB211D048
:1052D800294604F12800019207F012FA636A019A3C
:1052E800012B10D0294604F1C00007F009FA00206C
:1052F80002B070BD04F12800019207F093FA636AC6
:10530800019A012BEED1314604F1C00007F08AFA68
:10531800002002B070BD00BF03681B69042B05D8CC
:10532800044A02EB830393ED000A70479FED020ADB
:10533800704700BF0038010800803B470368D3F876
:1053480058027047704700BF08B500F0DFFCBDE8A1
:10535800084001F0BFBB00BF064808B503680BB1A1
:1053680003F064F8044803681BB1BDE8084004F082
:1053780013B808BD58AC022450A80224064808B542
:1053880003680BB103F052F8044803681BB1BDE889
:10539800084004F001B808BD58AC022450A8022403
:1053A800064808B503680BB103F040F804480368E1
:1053B8001BB1BDE8084003F0EFBF08BD58AC02249C
:1053C80050A80224364BDA6A520062D59A6A9A6A61
:1053D8009A6A9B6A180600D500BE314B9B6A9906EB
:1053E80000D500BE2E4B9B6ADA0600D500BE2C4BBA
:1053F8009B6A1B0700D500BE294B9B6A980700D5FE
:1054080000BE274B9B6AD90700D500BE244B9B6A78
:105418001A0400D500BE224B9B6A9B0400D500BE2F
:105428001F4B9B6AD80400D500BE1D4B9B6A19050B
:1054380000D500BE1A4B9B6A5A0500D500BE184B12
:105448009B6A9B0500D500BE154B9B6AD80500D505
:1054580000BE134B9B6A990100D500BE104B9B6A96
:10546800DA0100D500BE0E4B9B6A1B0300D500BEB7
:105478000B4B9B6A580300D500BE094B9B6A9903E6
:1054880000D500BE064B9B6ADA0306D400BE00BEF8
:10549800FEE7DB6A9B07FAD5F8E700BEF6E700BF30
:1054A80000ED00E000F03EBC00F042BC0A4B9B68F7
:1054B80003F17843B3F5003F0BD3084B986848B124
:1054C8009868012806D09868022803D09B680320B2
:1054D80070470120704700BF00ED00E000008038F1
:1054E8002DE9F041CEB004464C2200210AA80DF067
:1054F8006DFE2022002102A80DF068FEBC220021CA
:105508001EA80DF063FE022004F0BAFB2368012BED
:105518004FF0000354D0534A02250193C820D16AA2
:10552800514B21F00101D162D26A02F001020192CD
:105538009A6942F440429A619B6903F4404301939B
:10554800019B494A93699B04FCD5484902240022DF
:1055580001268B6A04274FF0080823F0030323432E
:105568008B62052316900AA818934FF4803310967F
:10557800179419941597CDF86880CDE91B2221223C
:10558800CDE91344CDE90A2305F064F800B1FEE73C
:105598003F220323294602A8CDE90223002208233B
:1055A800CDE9042340224023CDE9062340234FF4CC
:1055B8008062CDE9082305F07BFB0346B8B1FEE71E
:1055C800294A04250093F0209169264B41F4404173
:1055D8009161926902F440420092DA6A42F0010253
:1055E800DA62DB6A03F001030093009BA9E720223B
:1055F8004FF4805125934FF440152B9280222D9320
:105608001EA83093269135914FF4807124923492DC
:105618000C223394439140F2271120921022CDF8A6
:1056280084802A971F96CDE92E34CDE93B334FF479
:105638008033CDE922463193002446930623CDE9F1
:105648003E4527934FF48063094C2C931E94CDE973
:10565800281205F089FD00B1FEE704F037FB4EB0D3
:10566800BDE8F08100040058004802580044025880
:105678000F130F0370B584B0012401F0D9F94FF46A
:1056880080764FF04052194B68460025ADF800402F
:105698000396CDE9012301F0E9F919224FF04043BF
:1056A80068468DF8082001938DF80F40ADF80D601D
:1056B8008DF801408DF80A5001F0D8F902230B2229
:1056C80068468DF80F508DF801304FF062538DF811
:1056D80008200193ADF80D408DF80A4001F0C6F995
:1056E800042001F0B3F904B070BD00BF0E0001033F
:1056F80030B50D46044685B0D1E9000184E80300C1
:1057080000F0D4FAAB79A3B30AF0B2FEFEF758FE64
:1057180009F022FB0AF0AEFB2B798BBB6B799BB1AE
:10572800BFF34F8FBFF36F8F2A4B0022C3F850226D
:10573800BFF34F8FBFF36F8F5A6942F400325A613B
:10574800BFF34F8FBFF36F8F4FF0FF32002300245A
:1057580000256946204802928DF80C30CDE90045B5
:1057680009F01AFF1C4809F07FFF08F025FF05B073
:1057780030BD2046FFF7B4FE2046FFF77BFFC3E7A6
:10578800144C0023C4F88430BFF34F8FD4F8801032
:1057980043F6E07EC1F34E3CC1F3C9014FEA4C1C0D
:1057A8000CEA0E000B4640EA8372013BC4F8602203
:1057B8005A1CF8D1ACF1200C1CF1200FF0D1BFF32A
:1057C8004F8F636943F480336361BFF34F8FBFF337
:1057D8006F8FA3E700ED00E04CA8022405F098BB0A
:1057E80005F0B2BB1C4B9B6803F17842B2F5003F51
:1057F80025D3B3F5803F20D303F16042B2F5003FD3
:105808001FD303F15C42B2F5002F1CD303F17042A1
:10581800B2F5902F19D303F14842B2F5803F16D361
:1058280003F18042B2F1806F13D303F1E043B3F583
:10583800000F2CBF08200720704701207047002068
:1058480070470220704703207047042070470520E6
:1058580070470620704700BF00ED00E003480023B2
:10586800034A044903600DF093B900BF4CA8022411
:10587800000000244D53000810B4204C0022204B97
:1058880083B0D4F888101F4841F47001C4F8881018
:1058980019681D4C41F0010119601A611968084026
:1058A8001A4918609A61DA611A629A62DA621A63AE
:1058B8005A639A63DA631A645A64186820F4802079
:1058C80018601A66D3F8DC2042F06042C3F8DC2086
:1058D800D3F8DC300193019B23681940B1F1005FD4
:1058E80003D20B4B0122C3F80821044B4FF000628E
:1058F8009A6003B05DF8044B704700BF00ED00E00C
:10590800004402587FEDF6EA0010005C0000FFFF3B
:105918000080005100F57171D0F8040408F034BA21
:10592800C1EBC10300EB8303D0F80404D3F80822C9
:1059380008F058BAC1EBC10300EB8303D0F80404A4
:105948009A6C08F08DBA00BFD0F8040408F02CBB9C
:10595800C16810B5044619B1022900D0FEE701213B
:10596800D4F8040408F00AFBD4F80404BDE8104095
:1059780008F0DCBA10B50446D0F8040408F002FBBD
:105988002268D2F8003E43F00103C2F8003E236AC1
:1059980023B1034A136943F00603136110BD00BF26
:1059A80000ED00E0D0F8040408F0F6BAD0F80404DA
:1059B80008F00ABBD0F8040408F004BBD0F80404CB
:1059C80008F004BBD0F8040408F002BB9446D0F8F1
:1059D80098021A4608B5634604F042F8032802D82C
:1059E800024B185C08BD022008BD00BF243801081E
:1059F800D0F8980208B504F0C1F8032802D8024B81
:105A0800185C08BD022008BD24380108D0F89802A7
:105A180008B504F0F7F8032802D8024B185C08BD53
:105A2800022008BD243801080A06D0F8983206D4A6
:105A3800C1EBC10103EB810191F8FE01704701F050
:105A48007F01C1EBC10103EB810191F83E00704772
:105A5800D0F8980208B503F0EDFF032802D8024BEE
:105A6800185C08BD022008BD24380108D0F8980247
:105A780008B504F05BF8032802D8024B185C08BD8F
:105A8800022008BD24380108D0F8980208B504F0AF
:105A980025F8032802D8024B185C08BD022008BD6F
:105AA80024380108D0F8C00208F040BDD0F8C00280
:105AB80008F054BDD0F8C00208F05CBD704700BFC4
:105AC800D0F8C00208F042BDD0F8C00208F042BDCC
